:1000000002002E750A00220000000000000000001F
:10002000000000000000000000000002022D7581A9
:100030003612015EE582600302009A780079007A48
:10004000007B007C007D00EC4D601C88828983E48D
:1000500093A3A882A9838A828B83F0A3AA82AB830D
:100060001CBCFFE31D80E07582007583007C007D71
:1000700000EC4D600AE4F0A31CBCFFF51D80F27596
:1000800082007583007C007D00EC4D600AE4F0A3E3
:100090001CBCFFF51D80F212000312026780FE1BDC
:1000A0005B324A0045464D38204672657175656E73
:1000B0006379206D6561737572656D656E74207509
:1000C00073696E672054696D65722F436F756E7426
:1000D000657220302E0A46696C653A2025730A4302
:1000E0006F6D70696C65643A2025732C2025730A46
:1000F0000A00433A5C55736572735C6A696E696C99
:100100005C4465736B746F705C454C45435C454C57
:100110004543203239315C4E65772050726F6A65F5
:10012000637420325C4672657145464D382E63001B
:1001300041707220203720323032300032313A3272
:10014000353A3139000D663D256C75487A001B5BE8
:10015000304B003C4E4F20464C4F41543E0075A75B
:10016000007597DE7597AD43FF8075EF0275A71098
:1001700075C12075A70075A90075A900E5A930E72C
:10018000FB75A90375A903E5A930E7FB43A4107526
:10019000E10175E21075E340759810858E8E758DBE
:1001A000E6858D8B53890F438920D28ED29975C8ED
:1001B00000438E1075CAE075CBE375CEFF75CFFF97
:1001C000D2ADD2CAD2AF75820022AA82438E4075C8
:1001D00092B87593FF8592948593957591047B00F1
:1001E000C3EB9A5012E59130E7FB53917F108D02DB
:1001F000800205090B80E975910022AA82AB83BABF
:100200000004BB0001227582F9C002C0031201CABA
:100210007582F91201CA7582F91201CA7582FA1241
:1002200001CAD003D0021ABAFF011B80D2C0E0C0BD
:1002300002C003C0D075D000C2CF050AE50A249BD6
:100240005003750A00AA0A7B00C3E50B9AE50C9BD4
:100250009200B39281D0D0D003D002D0E032538943
:10026000F0438905C28C2212025E9001F41201FB58
:10027000749FC0E07400C0E07480C0E01203731586
:100280008115811581743CC0E07401C0E07480C0A8
:10029000E07430C0E07401C0E07480C0E074F2C06B
:1002A000E07400C0E07480C0E074A4C0E07400C0DA
:1002B000E07480C0E0120373E58124F4F581758A4F
:1002C00000758C00750900C28DD28C9000641201FB
:1002D000FBC28CAA097B008B058A047B007A00AEE6
:1002E0008C7F00780088018F008E077E00EE2AFA4E
:1002F000EF3BFBE83CFCE93DFDAE8AE4FF3395E0D3
:10030000F8F9EE2AFAEF3BFBE83CFCE93DFDC3744B
:10031000269A74079BE49CE49D500AD2CA750B325E
:10032000E4F50C8004C281C2CAC002C003C004C08C
:10033000057445C0E07401C0E07480C0E01203732E
:10034000E58124F9F581744EC0E07401C0E0748049
:10035000C0E01203731581158115810202BE0209E6
:10036000B485823085833185F032850D3390035E0C
:1003700002041DC008858108E50824FBF533E50863
:1003800024FBF8863008863108863290035E12041A
:100390001DD00822AA8274A5C0E07403C0E0C02268
:1003A000C0238A82220529E4B52902052A22AA82CD
:1003B00074302AFA24C6500A74072AFA300103431B
:1003C00002208A82020394E582FAC4540FF582C0A7
:1003D000021203AED002740F5AF5820203AEAA24B1
:1003E000AB25AC26AD27AE28752F20EE2EFEED23D3
:1003F0005401FF4206EA2AFAEB33FBEC33FCED33FF
:10040000FDC3EE952B4008EEC3952BFE430201D5AC
:100410002FD98A248B258C268D278E28228582220F
:10042000858323E4F529F52AAA30AB31AC328A82E0
:100430008B838CF01209C9FD74012AF530E43BF579
:10044000318C32EDFA70030209ADBA250280030245
:1004500009A5C205C206C207C208C209C20AC20B68
:10046000C20CC202C203C204752B00752C00752D8C
:10047000FFAB30AC31AD328B828C838DF01209C969
:10048000FAA3AB82AC838B308C318D32BA25078ACC
:100490008212039480928A06BE3000402E8A06EEB5
:1004A00024C6402774FFB52D13E52C75F00AA4FE71
:1004B000EA24D02EF52C70BFD20680BBE52D75F056
:1004C0000AA4FEEA24D02EF52D80ACBA2E0A74FFC1
:1004D000B52DA4752D00809F8A06BE6100400E8A4E
:1004E00006EE248540075302DFD2018002C201BA22
:1004F00020028075BA2303020578BA2A0302057D1B
:10050000BA2B02805FBA2D028055BA4202805FBAD0
:1005100043030205C2BA44030206FDBA45030207BB
:1005200017BA4603020713BA470302071BBA490367
:100530000206FDBA4C02803BBA4E0302071FBA4FB7
:1005400003020704BA5003020696BA53030205E6F3
:10055000BA5503020709BA580302070E020749D227
:1005600005020477D207020477D208020477D20A80
:10057000020477D20B020477D20C02047774FFB521
:100580002D20300A0BE53314F88833862C020477CB
:10059000E53324FEF888338606088607188E2C0279
:1005A0000477300A0BE53314F88833862D0204777C
:1005B000E53324FEF888338606088607188E2D0258
:1005C0000477300A0AE53314F888338602800FE591
:1005D0003324FEF888338603088604188B028A8247
:1005E00012039402074EE53324FDF888338603088E
:1005F000860408860518188B248C258D268B828C02
:10060000838DF01209FEAB82AC838B2E74FFB52D67
:1006100003852E2D20051DC3E52E952C5016E52CA7
:10062000C3952EF52CAB2C152CEB6008758220128F
:10063000039480F18524828525838526F01209C9DB
:10064000FBFA6029AB2D152DC3E464808BF063F0B9
:100650008095F050188A82120394AB24AC25AD2605
:100660000BBB00010C8B248C258D2680C720050335
:1006700002074EC3E52E952C400302074EE52CC31E
:10068000952EF52CAB2C152CEB700302074E7582C2
:100690002012039480EEE53324FDF88833860308A6
:1006A000860408860518188B248C258D26E526FBE4
:1006B00030E7047A438013EB546060047A50800A78
:1006C000EB30E6047A4980027A588A82C00212032B
:1006D0009475823A1203947582301203947582786D
:1006E000120394D002BA4902800BBA5002800685E8
:1006F00025821203C78524821203C78051D209754F
:100700002B0A804A752B088045752B0A8040752B73
:1007100010803BD2028037D2038033D204802FE591
:100720003324FDF8883386030886040886051818E4
:100730008B248C258D268B828C838DF0E5291209E4
:10074000E5A3E52A1209E580058A821203942002B6
:100750000620030330045AE53324FCF8883386036B
:100760000886040886050886061818188B248C2528
:100770008D268E2775245375250175268085243492
:1007800085253585263674012534FEE43535FFABE5
:10079000368E248F258B268534828535838536F0E9
:1007A0001209C9FBFA70030204288A82120394809A
:1007B000CCE52B70030204287B14300A2BE533149C
:1007C000F88833E6FC3395E0FDFEFF8C248D258E02
:1007D000268F2720095EAC247D007E007F008C24BC
:1007E0008D258E268F27804C300B1FE53324FCF897
:1007F00088338604088605088606088607181818B0
:100800008C248D258E268F27802AE53324FEF888B8
:1008100033860408860518ED3395E0FEFF8C248DA1
:10082000258E268F2720090CAC24AD257E007F0065
:100830008E268F27300C43E5244525452645276025
:10084000397408B52B0C758230C003120394D003A1
:1008500080287410B52B23758230C003120394D006
:100860000330010C758278C003120394D003800A10
:10087000758258C003120394D003300925AC24AD0F
:1008800025AE26E527FF30E717C3E49CFCE49DFD79
:10089000E49EFEE49FFF8C248D258E268F27800208
:1008A000C209752E00D20D8B00752800C0001203FE
:1008B000DED000200D0DE528C4FCE6FD4CF61888BE
:1008C000038002A628052EB20DE5244525452645C0
:1008D0002770D68803E52C7003752C0120061A209A
:1008E0000517E52E04FCC3952C500E758220C0031D
:1008F000120394D003152C80E930090E75822DC0A7
:1009000003120394D003152C8024E52E60203007B9
:100910000E75822BC003120394D003152C800F3068
:10092000080C758220C003120394D003152C2005F7
:100930001EAC2C152CC3E52E9C50273006047C30B1
:1009400080027C208C82C003120394D00380E2C317
:10095000E52E952C5009E52CC3952EF52C800375BA
:100960002C008B00AB2E152EEB6022B20D200D0A51
:1009700008E6C4540FFB8B2880078603740F5BF5D1
:1009800028852882C0001203AED00080D72005033E
:10099000020428AB2C152CEB70030204287582206E
:1009A00012039480EE8A821203940204288529821D
:1009B000852A8322AA82BA0A0810990280FB7599B7
:1009C0000D10990280FB8A992220F71430F61488C2
:1009D00083A88220F507E6A88375830022E280F7CA
:1009E000E49322E02220F71030F6118883A88220B9
:1009F000F507F6A88375830022F280F7F022AA8219
:100A0000AB83ACF07D007E008A828B838CF0120970
:100A1000C9FFA3AA82AB83EF60070DBD00EA0E8079
:100A2000E78D828E8322000000000000000000009D
:00000001FF
